{
  "transactions": [
    {
      "hash": "0x358f533886a6c5cc7d6de205fb61cee212fef46e1ba935590f9cc2e45f57024b",
      "transactionType": "CALL",
      "contractName": null,
      "contractAddress": "0xc3f7f4f739875c1ba4ba40283a2271ac572c0fc3",
      "function": "mintNft(string)",
      "arguments": [
        "ipfs://bafybeig37ioir76s7mg5oobetncojcm3c3hxasyd4rvid4jqhy4gkaheg4/?filename=0-PUG.json"
      ],
      "transaction": {
        "from": "0xc6edd10e757f88da71de403bb5f8de15538e6c17",
        "to": "0xc3f7f4f739875c1ba4ba40283a2271ac572c0fc3",
        "gas": "0x3da7f",
        "value": "0x0",
        "input": "0xda86f4a900000000000000000000000000000000000000000000000000000000000000200000000000000000000000000000000000000000000000000000000000000057697066733a2f2f62616679626569673337696f6972373673376d67356f6f6265746e636f6a636d3363336878617379643472766964346a71687934676b61686567342f3f66696c656e616d653d302d5055472e6a736f6e000000000000000000",
        "nonce": "0x4c",
        "chainId": "0xaa36a7"
      },
      "additionalContracts": [],
      "isFixedGasLimit": false
    }
  ],
  "receipts": [
    {
      "status": "0x1",
      "cumulativeGasUsed": "0xdecf5b",
      "logs": [
        {
          "address": "0xc3f7f4f739875c1ba4ba40283a2271ac572c0fc3",
          "topics": [
            "0xddf252ad1be2c89b69c2b068fc378daa952ba7f163c4a11628f55a4df523b3ef",
            "0x0000000000000000000000000000000000000000000000000000000000000000",
            "0x000000000000000000000000c6edd10e757f88da71de403bb5f8de15538e6c17",
            "0x0000000000000000000000000000000000000000000000000000000000000000"
          ],
          "data": "0x",
          "blockHash": "0x609db1f53a33215e4d4e022c1ef89e19bb97622179b0bf17c4ffd2a85d73f7d1",
          "blockNumber": "0x836de1",
          "blockTimestamp": "0x68599b9c",
          "transactionHash": "0x358f533886a6c5cc7d6de205fb61cee212fef46e1ba935590f9cc2e45f57024b",
          "transactionIndex": "0x93",
          "logIndex": "0xa2",
          "removed": false
        }
      ],
      "logsBloom": "0x00000000000000000010000000000000000000000000000000000000000000000010000000000000000000000000000000000000000000000000000000000000000000000000000000000008000000000000000002000000000000000000000000000000020000000000000000000802000000000000000000000010000000000000000000000000000000000000000000000000000000000000000000000000000000000000000000000000800000000000000000000000000000008000000000000002000000000000000000000000000000000000000000000000000020000000000000000000000000000000000000000000000000000000000000000000",
      "type": "0x2",
      "transactionHash": "0x358f533886a6c5cc7d6de205fb61cee212fef46e1ba935590f9cc2e45f57024b",
      "transactionIndex": "0x93",
      "blockHash": "0x609db1f53a33215e4d4e022c1ef89e19bb97622179b0bf17c4ffd2a85d73f7d1",
      "blockNumber": "0x836de1",
      "gasUsed": "0x2ca35",
      "effectiveGasPrice": "0x809c242",
      "from": "0xc6edd10e757f88da71de403bb5f8de15538e6c17",
      "to": "0xc3f7f4f739875c1ba4ba40283a2271ac572c0fc3",
      "contractAddress": null
    }
  ],
  "libraries": [],
  "pending": [],
  "returns": {},
  "timestamp": 1750703005,
  "chain": 11155111,
  "commit": null
}