{
  "transactions": [
    {
      "hash": "0xa10b72453694bad3351467bb06437e78fea2c331151e35b9d0fcd8048e2d69bf",
      "transactionType": "CALL",
      "contractName": null,
      "contractAddress": "0xb242b8b635287571f35021983b70d99c2373608f",
      "function": "mintNft(string)",
      "arguments": [
        "ipfs://bafybeig37ioir76s7mg5oobetncojcm3c3hxasyd4rvid4jqhy4gkaheg4/?filename=0-PUG.json"
      ],
      "transaction": {
        "from": "0xc6edd10e757f88da71de403bb5f8de15538e6c17",
        "to": "0xb242b8b635287571f35021983b70d99c2373608f",
        "gas": "0x3da7f",
        "value": "0x0",
        "input": "0xda86f4a900000000000000000000000000000000000000000000000000000000000000200000000000000000000000000000000000000000000000000000000000000057697066733a2f2f62616679626569673337696f6972373673376d67356f6f6265746e636f6a636d3363336878617379643472766964346a71687934676b61686567342f3f66696c656e616d653d302d5055472e6a736f6e000000000000000000",
        "nonce": "0x4e",
        "chainId": "0xaa36a7"
      },
      "additionalContracts": [],
      "isFixedGasLimit": false
    }
  ],
  "receipts": [
    {
      "status": "0x1",
      "cumulativeGasUsed": "0xe74b4d",
      "logs": [
        {
          "address": "0xb242b8b635287571f35021983b70d99c2373608f",
          "topics": [
            "0xddf252ad1be2c89b69c2b068fc378daa952ba7f163c4a11628f55a4df523b3ef",
            "0x0000000000000000000000000000000000000000000000000000000000000000",
            "0x000000000000000000000000c6edd10e757f88da71de403bb5f8de15538e6c17",
            "0x0000000000000000000000000000000000000000000000000000000000000000"
          ],
          "data": "0x",
          "blockHash": "0xa054a4f32d6ec3868182e38c7943fe4d2f15b93c323c17028314f329cdcc9a3a",
          "blockNumber": "0x836e22",
          "blockTimestamp": "0x68599ea8",
          "transactionHash": "0xa10b72453694bad3351467bb06437e78fea2c331151e35b9d0fcd8048e2d69bf",
          "transactionIndex": "0x87",
          "logIndex": "0xbc",
          "removed": false
        }
      ],
      "logsBloom": "0x00000000000000000010000000000000000000000000000000000000000000000000000000000000000000000000000000000000000000000000000000000000000000000000000000000008000000000000000000000000000000000000000000000000020000000000000020000882000000000000000000000010000000000000000000000000000000000000000000000000000000000000000000000000000000100000000000000000800000000000000000000000000000000000000000000002000000000000000000000000000000000000000000000000000020000000000000000000000000000000000000000000000000000000000000000000",
      "type": "0x2",
      "transactionHash": "0xa10b72453694bad3351467bb06437e78fea2c331151e35b9d0fcd8048e2d69bf",
      "transactionIndex": "0x87",
      "blockHash": "0xa054a4f32d6ec3868182e38c7943fe4d2f15b93c323c17028314f329cdcc9a3a",
      "blockNumber": "0x836e22",
      "gasUsed": "0x2ca35",
      "effectiveGasPrice": "0x689474e",
      "from": "0xc6edd10e757f88da71de403bb5f8de15538e6c17",
      "to": "0xb242b8b635287571f35021983b70d99c2373608f",
      "contractAddress": null
    }
  ],
  "libraries": [],
  "pending": [],
  "returns": {},
  "timestamp": 1750703785,
  "chain": 11155111,
  "commit": null
}